{
  "contractName": "TodoList",
  "abi": [
    {
      "inputs": [],
      "stateMutability": "nonpayable",
      "type": "constructor"
    },
    {
      "anonymous": false,
      "inputs": [
        {
          "indexed": false,
          "internalType": "uint256",
          "name": "id",
          "type": "uint256"
        },
        {
          "indexed": false,
          "internalType": "bool",
          "name": "complited",
          "type": "bool"
        },
        {
          "indexed": false,
          "internalType": "bool",
          "name": "overdue",
          "type": "bool"
        }
      ],
      "name": "TaskComplited",
      "type": "event"
    },
    {
      "anonymous": false,
      "inputs": [
        {
          "indexed": false,
          "internalType": "uint256",
          "name": "id",
          "type": "uint256"
        },
        {
          "indexed": false,
          "internalType": "string",
          "name": "content",
          "type": "string"
        },
        {
          "indexed": false,
          "internalType": "bool",
          "name": "completed",
          "type": "bool"
        },
        {
          "indexed": false,
          "internalType": "address",
          "name": "author",
          "type": "address"
        },
        {
          "indexed": false,
          "internalType": "bool",
          "name": "overdue",
          "type": "bool"
        },
        {
          "indexed": false,
          "internalType": "uint256",
          "name": "deadline",
          "type": "uint256"
        }
      ],
      "name": "TaskCreated",
      "type": "event"
    },
    {
      "inputs": [],
      "name": "owner",
      "outputs": [
        {
          "internalType": "address",
          "name": "",
          "type": "address"
        }
      ],
      "stateMutability": "view",
      "type": "function",
      "constant": true
    },
    {
      "inputs": [],
      "name": "taskCount",
      "outputs": [
        {
          "internalType": "uint256",
          "name": "",
          "type": "uint256"
        }
      ],
      "stateMutability": "view",
      "type": "function",
      "constant": true
    },
    {
      "inputs": [
        {
          "internalType": "uint256",
          "name": "",
          "type": "uint256"
        }
      ],
      "name": "tasks",
      "outputs": [
        {
          "internalType": "uint256",
          "name": "id",
          "type": "uint256"
        },
        {
          "internalType": "string",
          "name": "content",
          "type": "string"
        },
        {
          "internalType": "bool",
          "name": "completed",
          "type": "bool"
        },
        {
          "internalType": "address",
          "name": "author",
          "type": "address"
        },
        {
          "internalType": "bool",
          "name": "overdue",
          "type": "bool"
        },
        {
          "internalType": "uint256",
          "name": "deadline",
          "type": "uint256"
        }
      ],
      "stateMutability": "view",
      "type": "function",
      "constant": true
    },
    {
      "inputs": [
        {
          "internalType": "string",
          "name": "_content",
          "type": "string"
        },
        {
          "internalType": "uint256",
          "name": "_WorkingDays",
          "type": "uint256"
        }
      ],
      "name": "createTask",
      "outputs": [],
      "stateMutability": "nonpayable",
      "type": "function"
    },
    {
      "inputs": [
        {
          "internalType": "uint256",
          "name": "_id",
          "type": "uint256"
        }
      ],
      "name": "tooggleComplited",
      "outputs": [],
      "stateMutability": "nonpayable",
      "type": "function"
    },
    {
      "inputs": [
        {
          "internalType": "uint256",
          "name": "_id",
          "type": "uint256"
        }
      ],
      "name": "deleteTask",
      "outputs": [],
      "stateMutability": "nonpayable",
      "type": "function"
    },
    {
      "inputs": [
        {
          "internalType": "address",
          "name": "_author",
          "type": "address"
        }
      ],
      "name": "percentOfCompletion",
      "outputs": [
        {
          "internalType": "uint256",
          "name": "percent",
          "type": "uint256"
        },
        {
          "internalType": "uint256",
          "name": "countTasks",
          "type": "uint256"
        },
        {
          "internalType": "uint256",
          "name": "_taskCount",
          "type": "uint256"
        }
      ],
      "stateMutability": "view",
      "type": "function",
      "constant": true
    }
  ],
  "bytecode": "0x60806040526000805534801561001457600080fd5b5033600160006101000a81548173ffffffffffffffffffffffffffffffffffffffff021916908373ffffffffffffffffffffffffffffffffffffffff160217905550611234806100656000396000f3fe608060405234801561001057600080fd5b506004361061007d5760003560e01c80638da5cb5b1161005b5780638da5cb5b146100ef57806394e66b801461010d578063b251ac4f1461013f578063b6cb58a51461015b5761007d565b806304fe2b3414610082578063560f31921461009e5780638d977672146100ba575b600080fd5b61009c60048036038101906100979190610cc8565b610179565b005b6100b860048036038101906100b39190610d24565b610318565b005b6100d460048036038101906100cf9190610d24565b610466565b6040516100e696959493929190610e44565b60405180910390f35b6100f7610564565b6040516101049190610eac565b60405180910390f35b61012760048036038101906101229190610ef3565b61058a565b60405161013693929190610f20565b60405180910390f35b61015960048036038101906101549190610d24565b6106c5565b005b610163610a4f565b6040516101709190610f57565b60405180910390f35b60008081548092919061018b90610fa1565b91905055506000429050600062015180836101a69190610fea565b826101b19190611044565b90506040518060c0016040528060005481526020018581526020016000151581526020013373ffffffffffffffffffffffffffffffffffffffff168152602001600015158152602001828152506002600080548152602001908152602001600020600082015181600001556020820151816001019080519060200190610238929190610a55565b5060408201518160020160006101000a81548160ff02191690831515021790555060608201518160020160016101000a81548173ffffffffffffffffffffffffffffffffffffffff021916908373ffffffffffffffffffffffffffffffffffffffff16021790555060808201518160020160156101000a81548160ff02191690831515021790555060a082015181600301559050507f2ee58f4e89437149645f07ba3dd9402f09628c87fa8b4472263b7948a22546996000548560003360008660405161030a96959493929190610e44565b60405180910390a150505050565b600160009054906101000a900473ffffffffffffffffffffffffffffffffffffffff1673ffffffffffffffffffffffffffffffffffffffff166002600083815260200190815260200160002060020160019054906101000a900473ffffffffffffffffffffffffffffffffffffffff1673ffffffffffffffffffffffffffffffffffffffff16146103de576040517f08c379a00000000000000000000000000000000000000000000000000000000081526004016103d5906110e6565b60405180910390fd5b6002600082815260200190815260200160002060008082016000905560018201600061040a9190610adb565b6002820160006101000a81549060ff02191690556002820160016101000a81549073ffffffffffffffffffffffffffffffffffffffff02191690556002820160156101000a81549060ff02191690556003820160009055505050565b600260205280600052604060002060009150905080600001549080600101805461048f90611135565b80601f01602080910402602001604051908101604052809291908181526020018280546104bb90611135565b80156105085780601f106104dd57610100808354040283529160200191610508565b820191906000526020600020905b8154815290600101906020018083116104eb57829003601f168201915b5050505050908060020160009054906101000a900460ff16908060020160019054906101000a900473ffffffffffffffffffffffffffffffffffffffff16908060020160159054906101000a900460ff16908060030154905086565b600160009054906101000a900473ffffffffffffffffffffffffffffffffffffffff1681565b6000806000600190506000600190505b60005481116106a3578473ffffffffffffffffffffffffffffffffffffffff166002600083815260200190815260200160002060020160019054906101000a900473ffffffffffffffffffffffffffffffffffffffff1673ffffffffffffffffffffffffffffffffffffffff1614801561063b5750600015156002600083815260200190815260200160002060020160159054906101000a900460ff161515145b801561066e5750600115156002600083815260200190815260200160002060020160009054906101000a900460ff161515145b1561069057828061067e90610fa1565b935050818061068c90610fa1565b9250505b808061069b90610fa1565b91505061059a565b50806064836106b29190610fea565b6106bc9190611196565b92509193909250565b600160009054906101000a900473ffffffffffffffffffffffffffffffffffffffff1673ffffffffffffffffffffffffffffffffffffffff166002600083815260200190815260200160002060020160019054906101000a900473ffffffffffffffffffffffffffffffffffffffff1673ffffffffffffffffffffffffffffffffffffffff161461078b576040517f08c379a0000000000000000000000000000000000000000000000000000000008152600401610782906110e6565b60405180910390fd5b6000600260008381526020019081526020016000206040518060c0016040529081600082015481526020016001820180546107c590611135565b80601f01602080910402602001604051908101604052809291908181526020018280546107f190611135565b801561083e5780601f106108135761010080835404028352916020019161083e565b820191906000526020600020905b81548152906001019060200180831161082157829003601f168201915b505050505081526020016002820160009054906101000a900460ff161515151581526020016002820160019054906101000a900473ffffffffffffffffffffffffffffffffffffffff1673ffffffffffffffffffffffffffffffffffffffff1673ffffffffffffffffffffffffffffffffffffffff1681526020016002820160159054906101000a900460ff16151515158152602001600382015481525050905080604001511581604001901515908115158152505060026000838152602001908152602001600020600301544211610927576000816080019015159081151581525050610939565b60018160800190151590811515815250505b8060026000848152602001908152602001600020600082015181600001556020820151816001019080519060200190610973929190610a55565b5060408201518160020160006101000a81548160ff02191690831515021790555060608201518160020160016101000a81548173ffffffffffffffffffffffffffffffffffffffff021916908373ffffffffffffffffffffffffffffffffffffffff16021790555060808201518160020160156101000a81548160ff02191690831515021790555060a082015181600301559050507f68211cc9305d7cb8ab7c93c4917a798cf01cb7422e49404e945d9192b8c9f9b08282604001518360800151604051610a43939291906111c7565b60405180910390a15050565b60005481565b828054610a6190611135565b90600052602060002090601f016020900481019282610a835760008555610aca565b82601f10610a9c57805160ff1916838001178555610aca565b82800160010185558215610aca579182015b82811115610ac9578251825591602001919060010190610aae565b5b509050610ad79190610b1b565b5090565b508054610ae790611135565b6000825580601f10610af95750610b18565b601f016020900490600052602060002090810190610b179190610b1b565b5b50565b5b80821115610b34576000816000905550600101610b1c565b5090565b6000604051905090565b600080fd5b600080fd5b600080fd5b600080fd5b6000601f19601f8301169050919050565b7f4e487b7100000000000000000000000000000000000000000000000000000000600052604160045260246000fd5b610b9f82610b56565b810181811067ffffffffffffffff82111715610bbe57610bbd610b67565b5b80604052505050565b6000610bd1610b38565b9050610bdd8282610b96565b919050565b600067ffffffffffffffff821115610bfd57610bfc610b67565b5b610c0682610b56565b9050602081019050919050565b82818337600083830152505050565b6000610c35610c3084610be2565b610bc7565b905082815260208101848484011115610c5157610c50610b51565b5b610c5c848285610c13565b509392505050565b600082601f830112610c7957610c78610b4c565b5b8135610c89848260208601610c22565b91505092915050565b6000819050919050565b610ca581610c92565b8114610cb057600080fd5b50565b600081359050610cc281610c9c565b92915050565b60008060408385031215610cdf57610cde610b42565b5b600083013567ffffffffffffffff811115610cfd57610cfc610b47565b5b610d0985828601610c64565b9250506020610d1a85828601610cb3565b9150509250929050565b600060208284031215610d3a57610d39610b42565b5b6000610d4884828501610cb3565b91505092915050565b610d5a81610c92565b82525050565b600081519050919050565b600082825260208201905092915050565b60005b83811015610d9a578082015181840152602081019050610d7f565b83811115610da9576000848401525b50505050565b6000610dba82610d60565b610dc48185610d6b565b9350610dd4818560208601610d7c565b610ddd81610b56565b840191505092915050565b60008115159050919050565b610dfd81610de8565b82525050565b600073ffffffffffffffffffffffffffffffffffffffff82169050919050565b6000610e2e82610e03565b9050919050565b610e3e81610e23565b82525050565b600060c082019050610e596000830189610d51565b8181036020830152610e6b8188610daf565b9050610e7a6040830187610df4565b610e876060830186610e35565b610e946080830185610df4565b610ea160a0830184610d51565b979650505050505050565b6000602082019050610ec16000830184610e35565b92915050565b610ed081610e23565b8114610edb57600080fd5b50565b600081359050610eed81610ec7565b92915050565b600060208284031215610f0957610f08610b42565b5b6000610f1784828501610ede565b91505092915050565b6000606082019050610f356000830186610d51565b610f426020830185610d51565b610f4f6040830184610d51565b949350505050565b6000602082019050610f6c6000830184610d51565b92915050565b7f4e487b7100000000000000000000000000000000000000000000000000000000600052601160045260246000fd5b6000610fac82610c92565b91507fffffffffffffffffffffffffffffffffffffffffffffffffffffffffffffffff821415610fdf57610fde610f72565b5b600182019050919050565b6000610ff582610c92565b915061100083610c92565b9250817fffffffffffffffffffffffffffffffffffffffffffffffffffffffffffffffff048311821515161561103957611038610f72565b5b828202905092915050565b600061104f82610c92565b915061105a83610c92565b9250827fffffffffffffffffffffffffffffffffffffffffffffffffffffffffffffffff0382111561108f5761108e610f72565b5b828201905092915050565b7f4e6f74206f776e65722100000000000000000000000000000000000000000000600082015250565b60006110d0600a83610d6b565b91506110db8261109a565b602082019050919050565b600060208201905081810360008301526110ff816110c3565b9050919050565b7f4e487b7100000000000000000000000000000000000000000000000000000000600052602260045260246000fd5b6000600282049050600182168061114d57607f821691505b6020821081141561116157611160611106565b5b50919050565b7f4e487b7100000000000000000000000000000000000000000000000000000000600052601260045260246000fd5b60006111a182610c92565b91506111ac83610c92565b9250826111bc576111bb611167565b5b828204905092915050565b60006060820190506111dc6000830186610d51565b6111e96020830185610df4565b6111f66040830184610df4565b94935050505056fea2646970667358221220775e9e08ccd2bd0f8c71daaffcb8ed0078347b0a5a9aa69d14d9137582713b9d64736f6c634300080c0033",
  "immutableReferences": {},
  "source": "// SPDX-License-Identifier: MIT\npragma solidity >=0.4.21 <8.10.0;\n\ncontract TodoList {\n  uint256 public taskCount = 0;\n  address public owner;\n\n  struct Task {\n    uint id;\n    string content;\n    bool completed;\n    address author;\n    bool overdue;\n    uint deadline;\n  }\n\n  mapping(uint => Task) public tasks;\n\n  event TaskCreated(\n    uint id,\n    string content,\n    bool completed,\n    address author,\n    bool overdue,\n    uint deadline\n  );\n\n  event TaskComplited(\n    uint id,\n    bool complited,\n    bool overdue\n  );\n\n  constructor() public {\n \n    owner = msg.sender;\n  }\n\n  //  -    -   \n  function createTask(string memory _content, uint _WorkingDays) public {\n    taskCount ++;\n    //  \n    uint dateInAWeek = block.timestamp;\n    uint deadline = dateInAWeek + (_WorkingDays*86400);\n    //  \n    tasks[taskCount] = Task(taskCount,_content, false, msg.sender, false, deadline);\n    emit TaskCreated(taskCount,_content, false, msg.sender, false, deadline);\n  }\n\n  //  -   \n  function tooggleComplited(uint _id) public {\n    //  \n    require(tasks[_id].author == owner, \"Not owner!\");\n    //    \"\"  \n    Task memory _task = tasks[_id];\n    _task.completed = !_task.completed;\n    //      -   \"\"\n    if (block.timestamp <= tasks[_id].deadline) _task.overdue = false;\n    else _task.overdue = true;\n    //  \n    tasks[_id] = _task;\n    emit TaskComplited(_id, _task.completed, _task.overdue);\n  }\n\n  // \n  function deleteTask(uint _id) public {\n    require(tasks[_id].author == owner, \"Not owner!\");\n    delete tasks[_id]; \n  }\n\n  //       -  \n  //countTasks -  \n  //_taskCount -    \n  function percentOfCompletion(address  _author) public view returns (uint256 percent, uint256 countTasks, uint256 _taskCount) {\n    _taskCount = 1;\n    for(uint i = 1; i <=taskCount; i++) {\n      if (tasks[i].author == _author && tasks[i].overdue == false && tasks[i].completed == true) {\n        countTasks ++;\n        _taskCount++;\n      }\n    }\n    percent = countTasks*100/_taskCount;\n    return (percent,countTasks, _taskCount);\n  }\n}\n",
  "sourcePath": "D:\\!\\sol\\ToDoList\\contracts\\ToDoList.sol",
  "compiler": {
    "name": "solc",
    "version": "0.8.12+commit.f00d7308.Emscripten.clang"
  },
  "schemaVersion": "3.4.6",
  "updatedAt": "2022-04-11T11:02:05.940Z",
  "networkType": "ethereum",
  "devdoc": {
    "kind": "dev",
    "methods": {},
    "version": 1
  },
  "userdoc": {
    "kind": "user",
    "methods": {},
    "version": 1
  }
}